:1000000004308A00932C00000A108A100A1182071B
:1000100028340C3401340634D4326D386539613AF1
:1000200075396100363084008313000803192528D0
:100030000230F800F701F70B1B28F80B1A2897304D
:10004000F700F70B2128800B182808003D0EF03927
:10005000F7000F30080577048800000008143028E6
:100060003128081008000808F700080E0F39F800BA
:1000700008008316081088100811831288100F30AA
:1000800083160805F038880083120815000008144C
:10009000000033207808BD00081000000814502824
:1000A00033207808BC0008100F308316080588003C
:1000B00083123D0EF700F030F70577083C04F80096
:1000C0007808BC00BC1B3F283A1C88103A188814DA
:1000D00000000811000008103B0EBC000F30BC05EA
:1000E0003C08BD0026203B080F39BC00BD0026207F
:1000F00008000F30831608058800081088100811C2
:1001000083128810081108100F30B6001220013039
:10011000A8002808033C031C95280330BD002620B6
:100120000530B6001220A80A89280230BD0026201A
:100130000530B6001220A8012808033C031CA9289A
:1001400028080420A900BA012908BB003920A80A00
:100150009C288A110A12D72C370BAF28B2284030BE
:10016000B800B328B80101303602B8073808803823
:10017000B900BA013908BB00392008003508073A30
:100180000319CC280B3A0319D128063A0319D928A8
:10019000023A0319DF28E4280130B600B700AC208A
:1001A000E928BA010130BB0039200230B600122024
:1001B000E9280130B6000230B700AC20E928BA01C6
:1001C0001030BB003920E9280130BA003508BB00E7
:1001D000392008000B08A8008B13831603178C170F
:1001E0000C140000000083120C087F390319312918
:1001F0000313A90003170D080313AA0003170F0820
:100200000313AB002908B500BE202A0803178D0090
:1002100003132B0803178F0083168C170C14000090
:10022000000083120C0D0E0D7F39031931290313C1
:10023000A90003170D080313AA0003170F080313DF
:10024000AB002908B500BE202A0803178D00031350
:100250002B0803178F008D0A03198F0A0313ED284B
:1002600003170313A81B8B178A110A12E22C8E3076
:10027000F7002B08F8002A08F900FA01F808031D16
:100280004B297908F800F9010830F702F808031D36
:100290004B29F70153290310F81B5229F90DF80DCA
:1002A000F7034B29F8138A110A12F72C35080319A2
:1002B000C629BD0039080319C629BD0703186729D7
:1002C0007F30BD02031CC6290319C6296B29813062
:1002D000BD070318C6293D08F700F801F901FA0126
:1002E0003608C100C1173708C0003808BF001830F1
:1002F000BD00BE013F1C94293C08FA07031C862957
:10030000F90A031D8629F80A0319BE173B08F907E5
:10031000031C8D29F80A0319BE173A08B700B7174E
:100320003708F8070318BE17BE0DF80CF90CFA0CC5
:10033000C10CC00CBF0C0310BD0B79290130F707AD
:100340000318C629F81BAB29C10DFA0DF90DF80DDC
:10035000F7030319C629C11FBC29FA0A031DBC29CA
:10036000F90A031DBC29F80A031DBC29F80CF90C75
:10037000FA0CF70A0319C6293608BE003A08BE0669
:10038000BE1FC429F817CA29F813CA29F701F801B2
:10039000F901FA0108002C080319902AB800300866
:1003A0000319902AB802031CDA297F30B807031812
:1003B000902AE0298130B802031C902A0319902A60
:1003C0003808F700F801F901FA01B7012D08B60065
:1003D000B6172E08B5002F08B4001930B80033083E
:1003E000B4020318032A0130B5020318032AB60227
:1003F0000318032AB7020318032AB70AB60AB50A74
:100400003308B407352A3208B50203181E2A013012
:10041000B60203181E2AB70203181E2AB70AB60A24
:100420003208B5073308B407031C352AB50A031D83
:10043000352AB60A031D352AB70A352A310880380D
:10044000B6020318342A0130B7020318342AB70A57
:1004500031088038B6073208B507031C122AB60ADD
:10046000031D122AB70A122A7A14B80B382A432A13
:100470000310B40DB50DB60DB70D0310FA0DF90D3F
:10048000F80DB90DEF29391C4B2A0310F80CF90CA3
:10049000FA0CB90C4E2AF7030319902AB91B772AD4
:1004A0000310B40DB50DB60DB70D3308B402031823
:1004B000632A0130B5020318632AB6020318632ABF
:1004C000B702031C862A3208B50203186E2A0130CF
:1004D000B60203186E2AB702031C862A3108803838
:1004E000B6020318772A0130B702031C862AFA0ADB
:1004F000031D862AF90A031D862AF80A031D862A87
:10050000F70A0319902AF80CF90CFA0C2D08B80018
:100510003108B806B81F8E2AF817942AF813942ABF
:10052000F701F801F901FA018A110A12212D3508A3
:10053000B63CB500FA013608B900B6170310B60C80
:10054000B70CB80CFA0CF90CF80CF70CB50B9E2A8A
:10055000B91FB52AF709F809F909FA09F70A0319C1
:10056000F80A0319F90A0319FA0A08008318BB2AC2
:100570003D3084008313F701F801F901FA01BD0150
:10058000BE01BF01C0013C083B043A043904031911
:10059000F92A2030C1000310B50DB60DB70DB80D06
:1005A000BD0DBE0DBF0DC00D3C084002031DE22A6B
:1005B0003B083F02031DE22A3A083E02031DE22ADD
:1005C00039083D02031CF32A3908BD023A08031C0E
:1005D0003A0FBE023B08031C3B0FBF023C08031C42
:1005E0003C0FC0020314F70DF80DF90DFA0DC10B05
:1005F000CB2A3D088000840A3E088000840A3F0818
:100600008000840A4008800008000408AD002C081F
:10061000AF000319242B2B08B8002A08B7002908BB
:10062000B6002808B500BC01BB012030BA008230FA
:10063000B90056217A08AB007908AA007808A90009
:100640007708A800AF0B0B2B2B08B8002A08B700BF
:100650002908B6002808B50097227A08AB00790867
:10066000AA007808A9007708A800AB1F442BAD03A7
:10067000AD16A809A909AA09AB09A80A0319A90A6C
:100680000319AA0A0319AB0A3B30B4009A30B3002D
:10069000CA30B200B1010A30AF002C080319AD0A0C
:1006A00083142830840083132B08B8002A08B7006D
:1006B0002908B6002808B5003408BC003308BB0080
:1006C0003208BA003108B900B6227808F708031DCD
:1006D0007C2B2C0A2F0203197C2B2D0803197E2B4F
:1006E0000F392F020319762B0318AE2BAD1BAE2B3F
:1006F0002D1B7E2B2030AA2B2030AD05AD1E8C2B60
:10070000AD122C08031DAD037708AD002D30B500E8
:10071000BE202D08F700AD012C082F02031D9A2BD7
:100720007708AD002E30B500BE202D08F700203030
:10073000AD0500303030AD1EAA2BAD122C08031DC4
:10074000AD037708AD002D30B500BE202D08F700B1
:10075000AD013030F7077708B500BE2083103408AC
:10076000B8003308B7003208B6003108B500BC0144
:10077000BB01BA010A30B900B6227A08B400790880
:10078000B3007808B2007708B100AF0B502B8A1184
:100790000A12402D0408AD002C08AF000319E92B04
:1007A0002B08B8002A08B7002908B6002808B500A9
:1007B000BC01BB012030BA008230B90056217A0852
:1007C000AB007908AA007808A9007708A800AF0B49
:1007D000D02B2B08B8002A08B7002908B600280833
:1007E000B50097227A08AB007908AA007808A9001A
:1007F0007708A800AB1F092CAD03AD16A809A909FD
:10080000AA09AB09A80A0319A90A0319AA0A031914
:10081000AB0A3B30B4009A30B300CA30B200B10129
:100820000A30AF002C080319AD0A83142830840065
:1008300083132B08B8002A08B7002908B600280837
:10084000B5003408BC003308BB003208BA003108D8
:10085000B900B6227808F708031D412C2C0A2F0294
:100860000319412C2D080319432C0F392F020319AA
:100870003B2C0318772CAD1B772C2D1B432C2030E1
:10088000722C2030AD05AD1E522CAD122C08031D6C
:10089000AD037708AD002D300C1E4C2C99002D08AF
:1008A000F700AD012C082F02031D612C7708AD0065
:1008B0002E300C1E592C99002D08F7002030AD0564
:1008C00000303030AD1E722CAD122C08031DAD036C
:1008D0007708AD002D300C1E6B2C99002D08F70009
:1008E000AD013030F70777080C1E742C9900831087
:1008F0003408B8003308B7003208B6003108B50034
:10090000BC01BB01BA010A30B900B6227A08B400B2
:100910007908B3007808B2007708B100AF0B152C46
:100920008A110A124D2D03081F3983007130831676
:100930008F000F0803178715403003139900033009
:100940009A00A63098009030831298006830A70073
:10095000E830A6001F30A5007730A40083160317E7
:100960000908C039890003131F129F1200300317B2
:100970008800831287018801890183130030831660
:100980000313880083121F179F1383169F17831268
:100990001F14831603170908C039890003131F1297
:1009A0009F12013003178800831203137928013046
:1009B000B600B700AC200C3003178D0000308F005C
:1009C0000313EA280030F8001F08C33978049F0099
:1009D0009F149F18E92C1E08FA0083161E08831224
:1009E000A8001E08A900AB002808AA0037297A0829
:1009F000B8007908B7007808B6007708B50027086E
:100A0000BC002608BB002508BA002408B9005621FE
:100A10007A08AB007908AA007808A9007708A8002E
:100A20007A08AF007908AE007808AD007708AC000E
:100A30000A30B300D730B2002330B1007830B000B4
:100A4000CB297A08A3007908A2007808A1007708CA
:100A5000A0002030F700F70B2B2D2E2D00000230C8
:100A6000B600B700AC20893084002308AB00220810
:100A7000AA002108A9002008A8000230AC00052B1C
:100A8000893084002308AB002208AA002108A900AD
:100A90002008A8000230AC00CA2B20300C1E4E2DBE
:0E0AA00099000D300C1E522D9900E82C6300B9
:04400E00F12CFF3F53
:00000001FF
;PIC16F887
;CRC=1A99  CREATED="16-may.-18 22:15"
