:1000000004308A00932C00000A108A100A1182071B
:1000100028340C3401340634D4326D386539613AF1
:10002000753961003A3084008313000803192528CC
:100030000230F800F701F70B1B28F80B1A2897304D
:10004000F700F70B2128800B18280800410EF03923
:10005000F7000F30080577048800000008143028E6
:100060003128081008000808F700080E0F39F800BA
:1000700008008316081088100811831288100F30AA
:1000800083160805F038880083120815000008144C
:10009000000033207808C100081000000814502820
:1000A00033207808C00008100F3083160805880038
:1000B0008312410EF700F030F70577084004F8008E
:1000C0007808C000C01B3F283E1C88103E188814CA
:1000D00000000811000008103F0EC0000F30C005DE
:1000E0004008C10026203F080F39C000C10026206B
:1000F00008000F30831608058800081088100811C2
:1001000083128810081108100F30BA001220013035
:10011000AC002C08033C031C95280330C1002620AA
:100120000530BA001220AC0A89280230C10026200E
:100130000530BA001220AC012C08033C031CA9288E
:100140002C080420AD00BE012D08BF003920AC0AE8
:100150009C288A110A12C82C3B0BAF28B2284030C9
:10016000BC00B328BC0101303A02BC073C0880380F
:10017000BD00BE013D08BF00392008003908073A1C
:100180000319CC280B3A0319D128063A0319D928A8
:10019000023A0319DF28E4280130BA00BB00AC2082
:1001A000E928BE010130BF0039200230BA00122018
:1001B000E9280130BA000230BB00AC20E928BE01BA
:1001C0001030BF003920E9280130BE003908BF00D7
:1001D000392008000B08AC008B13831603178C170B
:1001E0000C140000000083120C087F390319312918
:1001F0000313AD0003170D080313AE0003170F0818
:100200000313AF002D08B900BE202E0803178D0080
:1002100003132F0803178F0083168C170C1400008C
:10022000000083120C0D0E0D7F39031931290313C1
:10023000AD0003170D080313AE0003170F080313D7
:10024000AF002D08B900BE202E0803178D00031340
:100250002F0803178F008D0A03198F0A0313ED2847
:1002600003170313AC1B8B178A110A12D32C8E3081
:10027000F7002F08F8002E08F900FA01F808031D0E
:100280004B297908F800F9010830F702F808031D36
:100290004B29F70153290310F81B5229F90DF80DCA
:1002A000F7034B29F8138A110A12E22C39080319B3
:1002B000C629C1003D080319C629C10703186729CB
:1002C0007F30C102031CC6290319C6296B2981305E
:1002D000C1070318C6294108F700F801F901FA011E
:1002E0003A08C500C5173B08C4003C08C3001830D5
:1002F000C100C201431C94294008FA07031C862947
:10030000F90A031D8629F80A0319C2173F08F907DD
:10031000031C8D29F80A0319C2173E08BB00BB173E
:100320003B08F8070318C217C20DF80CF90CFA0CB9
:10033000C50CC40CC30C0310C10B79290130F7079D
:100340000318C629F81BAB29C50DFA0DF90DF80DD8
:10035000F7030319C629C51FBC29FA0A031DBC29C6
:10036000F90A031DBC29F80A031DBC29F80CF90C75
:10037000FA0CF70A0319C6293A08C2003E08C20659
:10038000C21FC429F817CA29F813CA29F701F801AE
:10039000F901FA01080030080319902ABC0034085A
:1003A0000319902ABC02031CDA297F30BC0703180A
:1003B000902AE0298130BC02031C902A0319902A5C
:1003C0003C08F700F801F901FA01BB013108BA0055
:1003D000BA173208B9003308B8001930BC00370822
:1003E000B8020318032A0130B9020318032ABA021B
:1003F0000318032ABB020318032ABB0ABA0AB90A64
:100400003708B807352A3608B90203181E2A013002
:10041000BA0203181E2ABB0203181E2ABB0ABA0A14
:100420003608B9073708B807031C352AB90A031D6F
:10043000352ABA0A031D352ABB0A352A3508803801
:10044000BA020318342A0130BB020318342ABB0A4B
:1004500035088038BA073608B907031C122ABA0AC9
:10046000031D122ABB0A122A7A14BC0B382A432A0B
:100470000310B80DB90DBA0DBB0D0310FA0DF90D2F
:10048000F80DBD0DEF293D1C4B2A0310F80CF90C9B
:10049000FA0CBD0C4E2AF7030319902ABD1B772ACC
:1004A0000310B80DB90DBA0DBB0D3708B80203180B
:1004B000632A0130B9020318632ABA020318632AB7
:1004C000BB02031C862A3608B90203186E2A0130C3
:1004D000BA0203186E2ABB02031C862A350880382C
:1004E000BA020318772A0130BB02031C862AFA0AD3
:1004F000031D862AF90A031D862AF80A031D862A87
:10050000F70A0319902AF80CF90CFA0C3108BC0010
:100510003508BC06BC1F8E2AF817942AF813942AB3
:10052000F701F801F901FA018A110A120C2D3908B4
:10053000B63CB900FA013A08BD00BA170310BA0C6C
:10054000BB0CBC0CFA0CF90CF80CF70CB90B9E2A7E
:10055000BD1FB52AF709F809F909FA09F70A0319BD
:10056000F80A0319F90A0319FA0A08008318BB2AC2
:10057000413084008313F701F801F901FA01C10148
:10058000C201C301C40140083F043E043D040319F5
:10059000F92A2030C5000310B90DBA0DBB0DBC0DF2
:1005A000C10DC20DC30DC40D40084402031DE22A53
:1005B0003F084302031DE22A3E084202031DE22ACD
:1005C0003D084102031CF32A3D08C1023E08031CFA
:1005D0003E0FC2023F08031C3F0FC3024008031C2A
:1005E000400FC4020314F70DF80DF90DFA0DC50BF9
:1005F000CB2A41088000840A42088000840A43080C
:100600008000840A4408800008000408B100300813
:10061000B3000319242B2F08BC002E08BB002D08A3
:10062000BA002C08B900C001BF012030BE008230E2
:10063000BD0056217A08AF007908AE007808AD00F9
:100640007708AC00B30B0B2B2F08BC002E08BB00A7
:100650002D08BA002C08B90097227A08AF00790853
:10066000AE007808AD007708AC00AF1F442BB10393
:10067000B116AC09AD09AE09AF09AC0A0319AD0A50
:100680000319AE0A0319AF0A3B30B8009A30B7001D
:10069000CA30B600B5010A30B30030080319B10AF8
:1006A00083142C30840083132F08BC002E08BB0059
:1006B0002D08BA002C08B9003808C0003708BF0060
:1006C0003608BE003508BD00B6227808F708031DBD
:1006D0007C2B300A330203197C2B310803197E2B43
:1006E0000F3933020319762B0318AE2BB11BAE2B37
:1006F000311B7E2B2030AA2B2030B105B11E8C2B54
:10070000B1123008031DB1037708B1002D30B900D4
:10071000BE203108F700B10130083302031D9A2BC7
:100720007708B1002E30B900BE203108F700203024
:10073000B10500303030B11EAA2BB1123008031DB4
:10074000B1037708B1002D30B900BE203108F700A1
:10075000B1013030F7077708B900BE2083103808A0
:10076000BC003708BB003608BA003508B900C00124
:10077000BF01BE010A30BD00B6227A08B800790870
:10078000B7007808B6007708B500B30B502B8A1174
:100790000A122B2D0408B1003008B3000319E92B0D
:1007A0002F08BC002E08BB002D08BA002C08B90089
:1007B000C001BF012030BE008230BD0056217A0842
:1007C000AF007908AE007808AD007708AC00B30B35
:1007D000D02B2F08BC002E08BB002D08BA002C0817
:1007E000B90097227A08AF007908AE007808AD000A
:1007F0007708AC00AF1F092CB103B116AC09AD09E5
:10080000AE09AF09AC0A0319AD0A0319AE0A031900
:10081000AF0A3B30B8009A30B700CA30B600B50115
:100820000A30B30030080319B10A83142C30840055
:1008300083132F08BC002E08BB002D08BA002C081B
:10084000B9003808C0003708BF003608BE003508B8
:10085000BD00B6227808F708031D412C300A330288
:100860000319412C31080319432C0F3933020319A2
:100870003B2C0318772CB11B772C311B432C2030D9
:10088000722C2030B105B11E522CB1123008031D5C
:10089000B1037708B1002D300C1E4C2C99003108A3
:1008A000F700B10130083302031D612C7708B10055
:1008B0002E300C1E592C99003108F7002030B1055C
:1008C00000303030B11E722CB1123008031DB1035C
:1008D0007708B1002D300C1E6B2C99003108F70001
:1008E000B1013030F70777080C1E742C9900831083
:1008F0003808BC003708BB003608BA003508B90014
:10090000C001BF01BE010A30BD00B6227A08B8009E
:100910007908B7007808B6007708B500B30B152C36
:100920008A110A12382D03081F398300713083168B
:100930008F000F0803178715403003139900033009
:100940009A00A63098009030831298006830AB006F
:10095000E830AA001F30A9007730A80083160317DB
:100960000908C039890003131F129F1200300317B2
:100970008800831287018801890183130313A00172
:100980002110A201A3010030831688008312792868
:100990000130BA00BB00AC200C3003178D000030D2
:1009A0008F000313EA289F149F18D42C1E08FA0006
:1009B00083161E088312AC001E08AD00AF002C0881
:1009C000AE0037297A08BC007908BB007808BA0065
:1009D0007708B9002B08C0002A08BF002908BE000C
:1009E0002808BD0056217A08AF007908AE007808C3
:1009F000AD007708AC007A08B3007908B200780837
:100A0000B1007708B0000A30B700D730B600233005
:100A1000B5007830B400CB297A08A7007908A60081
:100A20007808A5007708A4002030F700F70B162DF2
:100A3000192D00000230BA00BB00AC2089308400C0
:100A40002708AF002608AE002508AD002408AC003A
:100A50000230B000052B893084002708AF0026083B
:100A6000AE002508AD002408AC000230B000CA2B4F
:100A700020300C1E392D99000D300C1E3D2D990093
:040A8000D32C630010
:04400E00F12CFF3F53
:00000001FF
;PIC16F887
;CRC=6CBD  CREATED="16-may.-18 23:00"
